:1000000020EF01F00000000000EF00F00000000011
:0A0010000000000000000000F3D71C
:10001C000134083609360450085E0550D8A0053C5A
:10002C00095E003601360F0E0C6E013408360936A7
:10003C00045000A006D0085E0550D8A0053C095E0F
:10004C0005D008260550D8B0053C092600360136E7
:10005C000C2EEBD700B006D0045008260550D8B0B3
:08006C00053C0926000012000A
:100074001ED03F0E006E39D0060E006E36D05B0ED9
:10008400006E33D04F0E006E30D0660E006E2DD051
:100094006D0E006E2AD07D0E006E27D0070E006E06
:1000A40024D07F0E006E21D06F0E006E1ED0235020
:1000B400000ADFE02350010ADFE02350020ADFE0F8
:1000C4002350030ADFE02350040ADFE02350050A2B
:1000D400DFE02350060ADFE02350070ADFE0235065
:0C00E400080ADFE02350090ADFE01200E8
:1000F0001BC023F0BFDF00C083FF80840D0E0C6E99
:10010000FB0E0D6E0D2EFED70C2EFCD7000000004E
:1001100080941DC023F0AEDF00C083FF80860D0EEB
:100120000C6EFB0E0D6E0D2EFED70C2EFCD70000B4
:10013000000080961FC023F09DDF00C083FF8088F1
:100140000D0E0C6EFB0E0D6E0D2EFED70C2EFCD779
:1001500000000000809821C023F08CDF00C083FFE6
:10016000808A0D0E0C6EFB0E0D6E0D2EFED70C2E22
:0A017000FCD700000000809A120086
:10017A000450000A08E10550000A05E1FF0E006E6E
:10018A007F0E016E57D00D6A096A086A0150001085
:10019A00D8B4000C015005180A6E0ABE0D1E0B6A6F
:1001AA0005AE05D0041E051E042AD8B4052A01AEE0
:1001BA0005D0001E011E002AD8B4012A01500510DC
:1001CA000A6E0ABE10D025DF0BB020D00DAE000C8F
:1001DA00001E011E002AD8B4012A081E091E082A78
:1001EA00D8B4092A000C05AE0DD001BE07D00150C3
:1001FA00096E0050086E016A006AE8D7016A006A4F
:10020A00002A000C011E001E0B2ADDD7082AD8B4CA
:10021A00092A0450085CD8A4D9D70550095CD8A487
:10022A00D5D7096A086A002AD8B4012A01AECED7FE
:06023A000000FF0C1200A1
:10024000C26A060EC16EF26A926A806A956A836A11
:10025000FF0E936EFD0E946E156A166A176A186A81
:10026000828281A4E9D081B04CD00A0E046E000EC7
:10027000056E17C000F018C001F07FDF00C01BF052
:1002800001C01CF00A0E046E000E056E17C000F0CF
:1002900018C001F072DF08C000F009C001F000C012
:1002A0001DF001C01EF00A0E046E000E056E15C092
:1002B00000F016C001F061DF00C01FF001C020F0A7
:1002C0000A0E046E000E056E15C000F016C001F097
:1002D00054DF08C000F009C001F000C021F001C0E7
:1002E00022F006DF154A162A800E006E800E1618C0
:1002F000005C02E115503B0804E2156A166A174AD1
:10030000182A81B25BD00A0E046E000E056E17C06B
:1003100000F018C001F031DF00C01BF001C01CF07C
:100320000A0E046E000E056E17C000F018C001F032
:1003300024DF08C000F009C001F000C01DF001C0BA
:100340001EF00A0E046E000E056E15C000F016C0F9
:1003500001F013DF00C01FF001C020F00A0E046E90
:10036000000E056E15C000F016C001F006DF08C0D3
:1003700000F009C001F000C021F001C022F0B8DE99
:10038000010E155E000E165A800E006E800E1618B5
:10039000005C02E11550000811E3000E181802E19C
:1003A000000E171803E1156A166A08D03B0E156E89
:1003B000000E166E010E175E000E185A0A0E046E1D
:1003C000000E056E17C000F018C001F0D6DE00C0A8
:1003D0001BF001C01CF00A0E046E000E056E17C063
:1003E00000F018C001F0C9DE08C000F009C001F03B
:1003F00000C01DF001C01EF00A0E046E000E056E56
:1004000015C000F016C001F0B8DE00C01FF001C03A
:1004100020F00A0E046E000E056E15C000F016C026
:1004200001F0ABDE08C000F009C001F000C021F00F
:1004300001C022F05DDE15D7800E006E800E181808
:10044000005C02E1175000080AE3800E006E800E87
:100450001618005C02E11550000801E365D0320E69
:10046000196E000E1A6E800E006E800E1A18005C57
:1004700002E11950000842E20A0E046E000E056EF9
:1004800017C000F018C001F078DE00C01BF001C0FA
:100490001CF00A0E046E000E056E17C000F018C0A6
:1004A00001F06BDE08C000F009C001F000C01DF0D3
:1004B00001C01EF00A0E046E000E056E15C000F09D
:1004C00016C001F05ADE00C01FF001C020F00A0E75
:1004D000046E000E056E15C000F016C001F04DDE72
:1004E00008C000F009C001F000C021F001C022F0F6
:1004F000FFDD010E195E000E1A5AB5D7010E155E0A
:10050000000E165A800E1618006E800E005C02E176
:10051000000E155C08E23B0E156E000E166E010E05
:10052000175E000E185A88D782920A0E046E000ECB
:10053000056E17C000F018C001F01FDE00C01BF0F0
:1005400001C01CF00A0E046E000E056E17C000F00C
:1005500018C001F012DE08C000F009C001F000C0B0
:100560001DF001C01EF00A0E046E000E056E15C0CF
:1005700000F016C001F001DE00C01FF001C020F045
:100580000A0E046E000E056E15C000F016C001F0D4
:10059000F4DD08C000F009C001F000C021F001C086
:0805A00022F0A6DDC1D7FFD750
:020000040030CA
:0D000100220D0EFF0080FF0FC00FE00F402A
:00000001FF
