:1000000050EF02F00000000000EF00F000000000E0
:0A0010000000000000000000F3D71C
:0A001C00210E0D6E0D2EFED712000E
:100026000F0E0C6E470E0D6E0D2EFED70C2EFCD746
:06003600000000001200B2
:06003C00000000001200AC
:1000420069BE02D0839E01D0838E69BC02D0839C9C
:1000520001D0838C69BA02D0839A01D0838A69B8AD
:1000620002D0839801D083882DB002D0848401D03D
:1000720084948482E2DF849269B602D0839E01D0A6
:10008200838E69B402D0839C01D0838C69B202D082
:10009200839A01D0838A69B002D0839801D0838881
:1000A2002DB002D0848401D084948482C6DF8492ED
:0C00B2002DA002D0B7DF01D0B0DF12009B
:1000BE00086A096A100E0C6E0134083609360450AF
:1000CE00085E0550D8A0053C095ED8B007D0045094
:1000DE0008260550D8B0053C0926D89000360136C2
:0600EE000C2EEAD71200FF
:1000F400666A050E665C0AE266506424E16E000ED0
:100104006520E26E200EE66E662AF3D766506424FC
:10011400E16E000E6520E26EE66A660666506424AF
:10012400676E000E6520686E0A0E046E000E056E82
:1001340062C000F063C001F0C0DF08C000F009C075
:1001440001F0300E002667C0E1FF68C0E2FF00C086
:10015400E6FF0A0E046E000E056E62C000F063C076
:1001640001F0ABDF00C062F001C063F0000E0118C3
:1001740002E1000E001801E102D06606CFD712009A
:0C0184002D9062C069F05BDF2D8012003E
:1001900058C004F059C005F004C002F005C003F0D7
:1001A000044A052A5AC000F05BC001F05A4A5B2A93
:1001B00000C0E9FF01C0EAFF02C0E1FF03C0E2FFA7
:1001C000EECFE6FF02C0E9FF03C0EAFFEE5201E016
:0C01D000E3D758C000F059C001F0120045
:1001DC000FD0800E586E19D0C00E586E16D0940EDB
:1001EC00586E13D0D40E586E10D0800E586E0DD0A1
:1001FC005850010AEEE05850020AEEE05850030A3B
:10020C00EEE05850040AEEE0F0D75904006E585056
:10021C00002600C058F000C069F00DDF2D905C6A1C
:10022C005C505A24E96E000E5B20EA6EEE520BE035
:10023C005C505A24E96E000E5B20EA6EEECF62F041
:0A024C009BDF5C2AEDD72D80120025
:10025600969296949598959A959C959E8492849458
:10026600839E839C839A8398DBDEDADED9DE838ADB
:1002760083888482E0DE8492D3DE8482DCDE84920C
:10028600CFDE8482D8DE8492CBDE83988482D3DE6E
:100296008492C6DE8482CFDE8492839A838E8482A1
:1002A600CADE8492BDDE839E83888482C4DE849205
:1002B60083988482C0DE8492B3DE8482BCDE84921C
:1002C60083888482B8DE8492ABDE83988482B3DE30
:1002D6008492838E838C838A83888482ACDE849224
:0602E6009FDE2D801200D6
:1002EC000900F5CFE6FF0006FBE10106F9E112007B
:1002FC0058C004F059C005F004C0E9FF05C0EAFF7E
:10030C00EE5203E0044A052AF7D704C002F005C0F8
:10031C0003F0044A052A5AC000F05BC001F05A4AA7
:10032C005B2A00C0E9FF01C0EAFF02C0E1FF03C085
:10033C00E2FFEECFE6FF02C0E9FF03C0EAFFEE5298
:0E034C0001E0E3D758C000F059C001F01200E4
:10035A005A6A5B6A58C003F059C004F058C005F0E5
:10036A0059C006F003C0E9FF04C0EAFFEE50200AB4
:10037A0004E15A505B1001E110D0010E5A6E000ED2
:10038A005B6E03C0E9FF04C0EAFF05C0E1FF06C0D7
:10039A00E2FFEECFE6FF054A062A03C001F004C0D9
:1003AA0002F0034A042A01C0E9FF02C0EAFFEE5044
:0E03BA00000AD8E158C000F059C001F012004E
:1003C8005E6A5F6A58C060F059C061F0800E5918C3
:1003D800006E800E005C02E1000E585C0BE2010E1C
:1003E8005E6E000E5F6E58500008606E59C061F076
:1003F800000E615660C062F061C063F05AC064F0DC
:100408005BC065F073DE060E5C6E000E5D6E000E5E
:10041800006E5D50005C02E15C50000819E25C501F
:100428005A24E16E5D505B20E26E010E5C5C006E4A
:10043800000E5D58016E00505A24E96E01505B2091
:10044800EA6EEECFE6FF010E5C5E000E5D5ADFD766
:100458005AC0E1FF5BC0E2FF200EE66E5E505F10FF
:100468001AE05C6A5D6A5C505A24E96E5D505B2054
:10047800EA6EEE50200A03E15C4A5D2AF4D7010EC9
:100488005C5E000E5D5A5C505A24E16E5D505B2044
:08049800E26E2D0EE66E12006B
:1004A000CAEC03F0526A536A546A556A566A576A2C
:1004B000C26A060EC16EFF0E936ECDDE020E0B6E8B
:1004C000040E0C6EBA0E0D6E0D2EFED70C2EFCD740
:1004D0000B2EFAD70000010E696EB3DD020E0B6E13
:1004E000040E0C6EBA0E0D6E0D2EFED70C2EFCD720
:1004F0000B2EFAD700000C0E696EA3DD020E0B6EF8
:10050000040E0C6EBA0E0D6E0D2EFED70C2EFCD7FF
:100510000B2EFAD70000010E586E030E596E180EFE
:100520005A6E000E5B6E5ADE0B0E0B6E260E0C6EB4
:100530005D0E0D6E0D2EFED70C2EFCD70B2EFAD7AE
:1005400000000000010E696E7CDD020E0B6E040ED1
:100550000C6EBA0E0D6E0D2EFED70C2EFCD70B2E88
:10056000FAD7000052C058F053C059F0370E5A6EF7
:10057000000E5B6E29DF54C058F055C059F03E0E96
:100580005A6E000E5B6E20DF56C058F057C059F00F
:10059000450E5A6E000E5B6E17DF370E586E000E5A
:1005A000596EDBDE00C04CF001C04DF03E0E586EBF
:1005B000000E596ED2DE00C04EF001C04FF0450E65
:1005C000586E000E596EC9DE00C050F001C051F0E7
:1005D000370E586E000E596E4CC05AF04DC05BF08D
:1005E000D7DD3E0E586E000E596E4EC05AF04FC009
:1005F0005BF0CEDD450E586E000E596E50C05AF0BD
:1006000051C05BF0C5DD2E0E586E000E596E150EF2
:100610005A6E000E5B6EBCDD800E5318006E800EAD
:10062000005C02E10A0E525C09E22E0E586E000ECA
:10063000596E160E5A6E000E5B6E60DE2E0E586EF0
:10064000000E596E4CC05AF04DC05BF057DE2E0EB6
:10065000586E000E596E250E5A6E000E5B6E4EDE01
:10066000800E5518006E800E005C02E10A0E545C8C
:1006700009E22E0E586E000E596E2B0E5A6E000EA9
:100680005B6E3CDE2E0E586E000E596E4EC05AF058
:100690004FC05BF033DE2E0E586E000E596E290EE1
:1006A0005A6E000E5B6E2ADE800E5718006E800EAA
:1006B000005C02E10A0E565C09E22E0E586E000E36
:1006C000596E270E5A6E000E5B6E18DE2E0E586E97
:1006D000000E596E50C05AF051C05BF00FDE010E93
:1006E000696EAFDC010E586E040E596E2E0E5A6EF6
:1006F000000E5B6E73DD564A572A800E006E800E28
:100700005718005C02E156503B0804E2566A576AEB
:10071000544A552A800E006E800E5518005C02E186
:1007200054503B0804E2546A556A524A532A800ED8
:10073000006E800E5318005C02E15250170802E26E
:10074000526A536A81A00FD00B0E0B6E260E0C6EF0
:100750005D0E0D6E0D2EFED70C2EFCD70B2EFAD78C
:100760000000000009D01A0E0C6EF80E0D6E0D2E52
:0C077000FED70C2EFCD70000F5D6FFD7FA
:1007940010EE15F0180E006E010E016E7C0EF66E52
:0E07A400070EF76E000EF86E76EC01F01200F4
:01077C00007C
:02077D0030004A
:0D077F004C43442050726F6E746F212100B6
:02078C003A0031
:02078E00300039
:020790003A002D
:02079200300035
:020000040030CA
:0D000100220D0EFF0080FF0FC00FE00F402A
:00000001FF
