:10000000C4EF01F00000000000EF00F0000000006D
:0A0010000000000000000000F3D71C
:10001C000F0E0C6E470E0D6E0D2EFED70C2EFCD750
:06002C00000000001200BC
:0A003200210E0D6E0D2EFED71200F8
:06003C00000000001200AC
:100042005BBE02D0839E01D0838E5BBC02D0839CB8
:1000520001D0838C5BBA02D0839A01D0838A5BB8C9
:1000620002D0839801D0838833B002D0848401D037
:1000720084948482E2DF84925BB602D0839E01D0B4
:10008200838E5BB402D0839C01D0838C5BB202D09E
:10009200839A01D0838A5BB002D0839801D083888F
:1000A20033B002D0848401D084948482C6DF8492E7
:0C00B20033A002D0B2DF01D0BBDF12008F
:1000BE00086A096A100E0C6E0134083609360450AF
:1000CE00085E0550D8A0053C095ED8B007D0045094
:1000DE0008260550D8B0053C0926D89000360136C2
:0600EE000C2EEAD71200FF
:1000F400586A050E585C0AE258505624E16E000E08
:100104005720E26E200EE66E582AF3D75850562434
:10011400E16E000E5720E26EE66A580658505624E7
:10012400596E000E57205A6E0A0E046E000E056EAC
:1001340054C000F055C001F0C0DF08C000F009C091
:1001440001F0300E002659C0E1FF5AC0E2FF00C0A2
:10015400E6FF0A0E046E000E056E54C000F055C092
:1001640001F0ABDF00C054F001C055F0000E0118DF
:1001740002E1000E001801E102D05806CFD71200A8
:0C018400339054C05BF05BDF338012004E
:10019000969296949598959A959C959E849284941F
:1001A000839E839C839A839839DF38DF37DF838A85
:1001B0008388848243DF849231DF84823FDF8492AC
:1001C0002DDF84823BDF849229DF8398848236DFAF
:1001D000849224DF848232DF8492839A838E8482A5
:1001E0002DDF84921BDF839E8388848227DF8492A5
:1001F0008398848223DF849211DF84821FDF8492BC
:10020000838884821BDF849209DF8398848216DFCF
:100210008492838E838C838A838884820FDF849286
:06022000FDDE3380120038
:100226000900F5CFE6FF0006FBE10106F9E1120041
:10023600506A516A4AC052F04BC053F0800E4B18B8
:10024600006E800E005C02E1000E4A5C0BE2010EBD
:10025600506E000E516E4A500008526E4BC053F05D
:10026600000E535652C054F053C055F04CC056F0D1
:100276004DC057F03CDF060E4E6E000E4F6E000E60
:10028600006E4F50005C02E14E50000819E24E50DD
:100296004C24E16E4F504D20E26E010E4E5C006E16
:1002A600000E4F58016E00504C24E96E01504D204F
:1002B600EA6EEECFE6FF010E4E5E000E4F5ADFD716
:1002C6004CC0E1FF4DC0E2FF200EE66E50505110CB
:1002D6001AE04E6A4F6A4E504C24E96E4F504D203C
:1002E600EA6EEE50200A03E14E4A4F2AF4D7010E79
:1002F6004E5E000E4F5A4E504C24E16E4F504D202C
:08030600E26E2D0EE66E1200FE
:10030E000FD0800E4A6E19D0C00E4A6E16D0940EC3
:10031E004A6E13D0D40E4A6E10D0800E4A6E0DD097
:10032E004A50010AEEE04A50020AEEE04A50030A31
:10033E00EEE04A50040AEEE0F0D74B04006E4A504D
:10034E00002600C04AF000C05BF074DE33904E6AA7
:10035E004E504C24E96E000E4D20EA6EEE520BE02C
:10036E004E504C24E96E000E4D20EA6EEECF54F046
:0A037E0002DF4E2AEDD73380120093
:100388007AEC02F0446A456A466A476A486A496AEA
:10039800C26A060EC16E956A836A010E936E010EDB
:1003A800946E8284F1DE020E0B6E040E0C6EBA0E91
:1003B8000D6E0D2EFED70C2EFCD70B2EFAD7000093
:1003C800010E5B6E3ADE020E0B6E040E0C6EBA0E58
:1003D8000D6E0D2EFED70C2EFCD70B2EFAD7000073
:1003E8000C0E5B6E2ADE020E0B6E040E0C6EBA0E3D
:1003F8000D6E0D2EFED70C2EFCD70B2EFAD7000053
:10040800010E4A6E030E4B6E260E4C6E000E4D6E9C
:100418007ADF0B0E0B6E260E0C6E5D0E0D6E0D2E1A
:10042800FED70C2EFCD70B2EFAD700000000010EC9
:100438005B6E03DE020E0B6E040E0C6EBA0E0D6EB2
:100448000D2EFED70C2EFCD70B2EFAD70000010E6E
:100458004A6E010E4B6E150E4C6E000E4D6E53DF3C
:1004680082B003D000000000FBD782A003D00000B8
:100478000000FBD7484A492A800E4918006E800EB2
:10048800005C02E1070E485C08E3010E4426000EFA
:10049800452246224722486A496A44C04AF045C074
:1004A8004BF0340E4C6E000E4D6EC1DE020E4A6EDD
:1004B800060E4B6E340E4C6E000E4D6E24DF81B06E
:0E04C80004D0446A456A466A476ACAD7FFD71D
:1004F40010EE15F01E0E006E010E016ED60EF66E95
:0E050400040EF76E000EF86E13EC01F01200FC
:1004D6004E756D65726F20646520766F6C746173FE
:0104E6000015
:0D04E7004C43442050726F6E746F21210051
:020000040030CA
:0D000100220F0EFF0181FF0FC00FE00F4026
:00000001FF
