:10000000C4EF01F00000000000EF00F0000000006D
:0A0010000000000000000000F3D71C
:10001C000F0E0C6E470E0D6E0D2EFED70C2EFCD750
:06002C00000000001200BC
:0A003200210E0D6E0D2EFED71200F8
:06003C00000000001200AC
:1000420050BE02D0839E01D0838E50BC02D0839CCE
:1000520001D0838C50BA02D0839A01D0838A50B8DF
:1000620002D0839801D0838833B002D0848401D037
:1000720084948482E2DF849250B602D0839E01D0BF
:10008200838E50B402D0839C01D0838C50B202D0B4
:10009200839A01D0838A50B002D0839801D083889A
:1000A20033B002D0848401D084948482C6DF8492E7
:0C00B20033A002D0B2DF01D0BBDF12008F
:1000BE00086A096A100E0C6E0134083609360450AF
:1000CE00085E0550D8A0053C095ED8B007D0045094
:1000DE0008260550D8B0053C0926D89000360136C2
:0600EE000C2EEAD71200FF
:1000F4004D6A050E4D5C0AE24D504B24E16E000E34
:100104004C20E26E200EE66E4D2AF3D74D504B2460
:10011400E16E000E4C20E26EE66A4D064D504B2413
:100124004E6E000E4C204F6E0A0E046E000E056ECD
:1001340049C000F04AC001F0C0DF08C000F009C0A7
:1001440001F0300E00264EC0E1FF4FC0E2FF00C0B8
:10015400E6FF0A0E046E000E056E49C000F04AC0A8
:1001640001F0ABDF00C049F001C04AF0000E0118F5
:1001740002E1000E001801E102D04D06CFD71200B3
:0C018400339049C050F05BDF3380120064
:10019000969296949598959A959C959E849284941F
:1001A000839E839C839A839839DF38DF37DF838A85
:1001B0008388848243DF849231DF84823FDF8492AC
:1001C0002DDF84823BDF849229DF8398848236DFAF
:1001D000849224DF848232DF8492839A838E8482A5
:1001E0002DDF84921BDF839E8388848227DF8492A5
:1001F0008398848223DF849211DF84821FDF8492BC
:10020000838884821BDF849209DF8398848216DFCF
:100210008492838E838C838A838884820FDF849286
:06022000FDDE3380120038
:100226000900F5CFE6FF0006FBE10106F9E1120041
:10023600456A466A3FC047F040C048F0800E401805
:10024600006E800E005C02E1000E3F5C0BE2010EC8
:10025600456E000E466E3F500008476E40C048F09F
:10026600000E485647C049F048C04AF041C04BF01E
:1002760042C04CF03CDF060E436E000E446E000E8C
:10028600006E4450005C02E14350000819E24350FE
:100296004124E16E44504220E26E010E435C006E42
:1002A600000E4458016E00504124E96E0150422070
:1002B600EA6EEECFE6FF010E435E000E445ADFD72C
:1002C60041C0E1FF42C0E2FF200EE66E45504610F7
:1002D6001AE0436A446A43504124E96E445042207E
:1002E600EA6EEE50200A03E1434A442AF4D7010E8F
:1002F600435E000E445A43504124E16E445042206E
:08030600E26E2D0EE66E1200FE
:10030E000FD0800E3F6E19D0C00E3F6E16D0940ED9
:10031E003F6E13D0D40E3F6E10D0800E3F6E0DD0B8
:10032E003F50010AEEE03F50020AEEE03F50030A52
:10033E00EEE03F50040AEEE0F0D74004006E3F506E
:10034E00002600C03FF000C050F074DE3390436AC8
:10035E0043504124E96E000E4220EA6EEE520BE04D
:10036E0043504124E96E000E4220EA6EEECF49F072
:0A037E0002DF432AEDD7338012009E
:1003880084EC02F03B6A3C6A3D6A3E6AC26A060E29
:10039800C16E956A836A010E936E010E946E828413
:1003A800F3DE020E0B6E040E0C6EBA0E0D6E0D2EE1
:1003B800FED70C2EFCD70B2EFAD70000010E506E7C
:1003C8003CDE020E0B6E040E0C6EBA0E0D6E0D2E78
:1003D800FED70C2EFCD70B2EFAD700000C0E506E51
:1003E8002CDE020E0B6E040E0C6EBA0E0D6E0D2E68
:1003F800FED70C2EFCD70B2EFAD70000010E3F6E4D
:10040800030E406E260E416E000E426E7CDF0B0E10
:100418000B6E260E0C6E5D0E0D6E0D2EFED70C2E7D
:10042800FCD70B2EFAD700000000010E506E05DE37
:10043800020E0B6E040E0C6EBA0E0D6E0D2EFED74C
:100448000C2EFCD70B2EFAD7000082B00BD0030E6F
:100458000C6E970E0D6E0D2EFED70C2EFCD70000DD
:100468000000F3D782A01CD0030E0C6E970E0D6E01
:100478000D2EFED70C2EFCD7000000003D4A3E2A68
:10048800800E3E18006E800E005C02E1080E3D5C96
:1004980006E33B4A3C2A3BC083FF3D6A3E6AE2D7FB
:1004A8003BC03FF03CC040F0340E416E000E426E3F
:1004B800BEDE010E3F6E010E406E150E416E000E3F
:1004C800426E21DF020E3F6E060E406E340E416E04
:1004D800000E426E18DF81B002D03B6A3C6AB5D785
:0204E800FFD73C
:1005080010EE15F01E0E006E010E016EEA0EF66E6C
:0E051800040EF76E000EF86E13EC01F01200E8
:1004EA004E756D65726F20646520766F6C746173EA
:0104FA000001
:0D04FB004C43442050726F6E746F2121003D
:020000040030CA
:0D000100220F0EFF0181FF0FC00FE00F4026
:00000001FF
