:1000000058EF01F00000000000EF00F000000000D9
:0A0010000000000000000000F3D71C
:0A001C00210E0D6E0D2EFED712000E
:100026000F0E0C6E470E0D6E0D2EFED70C2EFCD746
:06003600000000001200B2
:06003C00000000001200AC
:100042004BBE02D0839E01D0838E4BBC02D0839CD8
:1000520001D0838C4BBA02D0839A01D0838A4BB8E9
:1000620002D0839801D0838842B002D0848401D028
:1000720084948482E2DF84924BB602D0839E01D0C4
:10008200838E4BB402D0839C01D0838C4BB202D0BE
:10009200839A01D0838A4BB002D0839801D083889F
:1000A20042B002D0848401D084948482C6DF8492D8
:0C00B20042A002D0B7DF01D0B0DF120086
:1000BE00086A096A100E0C6E0134083609360450AF
:1000CE00085E0550D8A0053C095ED8B007D0045094
:1000DE0008260550D8B0053C0926D89000360136C2
:0600EE000C2EEAD71200FF
:0C00F40042904AC04BF0A3DF4280120093
:10010000969296949598959A959C959E84928494AF
:10011000839E839C839A839886DF85DF84DF838A2E
:10012000838884828BDF84927EDF848287DF84925F
:100130007ADF848283DF849276DF839884827EDF15
:10014000849271DF84827ADF8492839A838E8482A0
:1001500075DF849268DF839E838884826FDF849258
:10016000839884826BDF84925EDF848267DF84926F
:100170008388848263DF849256DF839884825EDF83
:100180008492838E838C838A8388848257DF8492CF
:060190004ADF428012006C
:100196000900F5CFE6FF0006FBE10106F9E11200D2
:1001A600476A050E475C0AE247504524E16E000E99
:1001B6004620E26E200EE66E472AF3D747504524C6
:1001C600E16E000E4620E26EE66A47064750452479
:1001D600486E000E4620496E0A0E046E000E056E2D
:1001E60043C000F044C001F067DF08C000F009C05A
:1001F60001F0300E002648C0E1FF49C0E2FF00C012
:10020600E6FF0A0E046E000E056E43C000F044C001
:1002160001F052DF00C043F001C044F0000E0118A7
:1002260002E1000E001801E102D04706CFD7120006
:100236000FD0800E436E19D0C00E436E16D0940EAA
:10024600436E13D0D40E436E10D0800E436E0DD085
:100256004350010AEEE04350020AEEE04350030A1F
:10026600EEE04350040AEEE0F0D74404006E43503B
:10027600002600C043F000C04BF0E0DE4290476A23
:1002860047504524E96E000E4620EA6EEE520BE01A
:1002960047504524E96E000E4620EA6EEECF4AF03E
:0A02A60026DF472AEDD74280120040
:1002B000430E156E6F0E166E6E0E176E740E186E60
:1002C000610E196E670E1A6E650E1B6E6D0E1C6E3A
:1002D0003A0E1D6E200E1E6E1F6A206A216AC26AC7
:1002E000060EC16E956A966A010E946E828408DFCE
:1002F000020E0B6E040E0C6EBA0E0D6E0D2EFED796
:100300000C2EFCD70B2EFAD70000010E4B6E99DE97
:10031000020E0B6E040E0C6EBA0E0D6E0D2EFED775
:100320000C2EFCD70B2EFAD700000C0E4B6E89DE7C
:10033000020E0B6E040E0C6EBA0E0D6E0D2EFED755
:100340000C2EFCD70B2EFAD70000830ECD6ECF6A91
:10035000CE6A010E436E010E446E150E456E000E00
:10036000466E69DF020E0B6E040E0C6EBA0E0D6E39
:100370000D2EFED70C2EFCD70B2EFAD70000CECFB9
:1003800020F0000E216ECFCF01F0006A2050002631
:100390002150012200C020F001C021F000C043F034
:1003A00001C044F0220E456E000E466EFCDE020EC9
:1003B000436E010E446E220E456E000E466E3BDF0C
:1003C000020E0B6E040E0C6EBA0E0D6E0D2EFED7C5
:0E03D0000C2EFCD70B2EFAD70000D1D7FFD78A
:020000040030CA
:0D000100220D0EFF0180FF0FC00FE00F4029
:00000001FF
