:1000000015EF02F00000000000EF00F0000000001B
:0A0010000000000000000000F3D71C
:10001C00FF0E836E070E0B6E170E0C6E6A0E0D6EB6
:10002C000D2EFED70C2EFCD70B2EFAD70000836AB0
:02003C001200B0
:10003E00FF0E836E030E0B6E080E0C6E770E0D6E9A
:10004E000D2EFED70C2EFCD70B2EFAD7836A12007C
:10005E00DEDF0A0E0B6E220E0C6EA10E0D6E0D2E35
:10006E00FED70C2EFCD70B2EFAD7D1DF0A0E0B6E55
:10007E00220E0C6EA10E0D6E0D2EFED70C2EFCD781
:10008E000B2EFAD7C4DF0A0E0B6E220E0C6EA10ECB
:10009E000D6E0D2EFED70C2EFCD70B2EFAD7B7DF1A
:1000AE000A0E0B6E220E0C6EA10E0D6E0D2EFED7CD
:1000BE000C2EFCD70B2EFAD7AADF0A0E0B6E220ED1
:1000CE000C6EA10E0D6E0D2EFED70C2EFCD70B2E28
:0400DE00FAD712003B
:1000E2009CDF0A0E0B6E220E0C6EA10E0D6E0D2EF3
:1000F200FED70C2EFCD70B2EFAD7A0DF0A0E0B6E02
:10010200220E0C6EA10E0D6E0D2EFED70C2EFCD7FC
:100112000B2EFAD793DF0A0E0B6E220E0C6EA10E77
:100122000D6E0D2EFED70C2EFCD70B2EFAD786DFC6
:100132000A0E0B6E220E0C6EA10E0D6E0D2EFED748
:0A0142000C2EFCD70B2EFAD712008A
:10014C0078DF0A0E0B6E220E0C6EA10E0D6E0D2EAC
:10015C00FED70C2EFCD70B2EFAD76BDF0A0E0B6ECC
:10016C00220E0C6EA10E0D6E0D2EFED70C2EFCD792
:10017C000B2EFAD74DDF0A0E0B6E220E0C6EA10E53
:10018C000D6E0D2EFED70C2EFCD70B2EFAD740DFA2
:10019C000A0E0B6E220E0C6EA10E0D6E0D2EFED7DE
:1001AC000C2EFCD70B2EFAD733DF0A0E0B6E220E59
:1001BC000C6EA10E0D6E0D2EFED70C2EFCD70B2E39
:0401CC00FAD712004C
:1001D00036DF0A0E0B6E220E0C6EA10E0D6E0D2E6A
:1001E000FED70C2EFCD70B2EFAD729DF0A0E0B6E8A
:1001F000220E0C6EA10E0D6E0D2EFED70C2EFCD70E
:100200000B2EFAD71CDF0A0E0B6E220E0C6EA10EFF
:100210000D6E0D2EFED70C2EFCD70B2EFAD7FEDE60
:100220000A0E0B6E220E0C6EA10E0D6E0D2EFED759
:100230000C2EFCD70B2EFAD7F1DE0A0E0B6E220E17
:100240000C6EA10E0D6E0D2EFED70C2EFCD70B2EB4
:04025000FAD71200C7
:10025400F4DE0A0E0B6E220E0C6EA10E0D6E0D2E28
:10026400FED70C2EFCD70B2EFAD7D6DE0A0E0B6E59
:10027400220E0C6EA10E0D6E0D2EFED70C2EFCD789
:100284000B2EFAD7C9DE0A0E0B6E220E0C6EA10ECF
:100294000D6E0D2EFED70C2EFCD70B2EFAD7BCDE1E
:1002A4000A0E0B6E220E0C6EA10E0D6E0D2EFED7D5
:1002B4000C2EFCD70B2EFAD7AFDE0A0E0B6E220ED5
:1002C4000C6EA10E0D6E0D2EFED70C2EFCD70B2E30
:0402D400FAD7120043
:1002D800B2DE0A0E0B6E220E0C6EA10E0D6E0D2EE6
:1002E800FED70C2EFCD70B2EFAD794DE0A0E0B6E17
:1002F800220E0C6EA10E0D6E0D2EFED70C2EFCD705
:100308000B2EFAD787DE0A0E0B6E220E0C6EA10E8C
:100318000D6E0D2EFED70C2EFCD70B2EFAD77ADEDB
:100328000A0E0B6E220E0C6EA10E0D6E0D2EFED750
:0A0338000C2EFCD70B2EFAD7120092
:100342007DDE0A0E0B6E220E0C6EA10E0D6E0D2EB0
:10035200FED70C2EFCD70B2EFAD770DE0A0E0B6ED0
:10036200220E0C6EA10E0D6E0D2EFED70C2EFCD79A
:100372000B2EFAD763DE0A0E0B6E220E0C6EA10E46
:100382000D6E0D2EFED70C2EFCD70B2EFAD745DEA6
:100392000A0E0B6E220E0C6EA10E0D6E0D2EFED7E6
:0A03A2000C2EFCD70B2EFAD7120028
:1003AC0048DE0A0E0B6E220E0C6EA10E0D6E0D2E7B
:1003BC00FED70C2EFCD70B2EFAD73BDE0A0E0B6E9B
:1003CC00220E0C6EA10E0D6E0D2EFED70C2EFCD730
:1003DC000B2EFAD72EDE0A0E0B6E220E0C6EA10E11
:1003EC000D6E0D2EFED70C2EFCD70B2EFAD712004D
:0A03FC006DDFA1DFD5DF6FDE120018
:100406000900F5CFE6FF0006FBE10106F9E112005F
:100416009ADE22DE98DE1BDF1ADF1EDED6DED5DE92
:0404260016DF1200CB
:10042A00010E936E956A81B001D0E3DF81B201D0EB
:08043A00EDDF836AF8D7FFD75C
:020000040030CA
:0D000100220D0EFF0080FF0FC00FE00F402A
:00000001FF
