:10000000AFEF00F00000000000EF00F00000000083
:0A0010000000000000000000F3D71C
:10001C000B6A0A6A096A00500402F4CF09F0F3CFA4
:10002C0008F001500502F4CF0BF0F3CF0AF00050AA
:10003C000502F3500926F4500A22E86A0B220150FB
:10004C000402F3500926F4500A22E86A0B2208C075
:10005C0000F009C001F00AC002F00BC003F012005E
:0C006C000E0E0D6E0D2EFED700001200CF
:0A0078009494CA840C0EBD1212000D
:10008200C70EC2161AC000F000360090003600906B
:10009200003600900050C212E8DFC284C2A401D030
:1000A200FDD7C4CF01F0006AC3500012000E011246
:0200B20012003A
:1000B4000900F5CFE6FF0006FBE10106F9E11200B5
:1000C400820E166E000E176E1A0E186E000E196E42
:1000D400C26AC00EC212151C006E0050C116C18C3B
:0600E400C18EC280120073
:0800EA00BE6ABD98BD9A120028
:1000F200CB50010F006E016A000E01221AC004F0FB
:10010200000E056E8ADF060E026E00C004F001C00A
:1001120005F0025005E005320432059EFF0FFAD7C2
:10012200040E016E04C000F0015004E0003600909D
:10013200FF0FFBD7300E0014036E04C000F005C0A1
:1001420001F001320032019E01320032019E00C0F4
:0C015200BEFF0F0EBD160350BD121200C0
:10015E00E2EC00F08E0EC16EC10EC26EACDF92806C
:10016E00CA80CA92F90ECB6EB9DF1A6ABBDF7DDF89
:10017E001A6A80DF00C002F001C003F003320232BF
:10018E00039E03BC038E03320232039E03BC038E16
:10019E0002C01AF0A7DF020E0B6E040E0C6EBA0E22
:1001AE000D6E0D2EFED70C2EFCD70B2EFAD700009F
:0401BE00DFD7FFD7B1
:1001C40010EE15F0010E006E010E016EC20EF66EF9
:0E01D400010EF76E000EF86E5AEC00F01200ED
:0101C2000F2D
:020000040030CA
:0D00010022010EFF0080FF0FC00FE00F4036
:00000001FF
