:1000000031EF08F00000000000EF00F000000000F9
:0A0010000000000000000000F3D71C
:10001C000F0E0C6E470E0D6E0D2EFED70C2EFCD750
:06002C00000000001200BC
:0A003200210E0D6E0D2EFED71200F8
:06003C00000000001200AC
:100042000B820BAE2BEF00F00368026801680068B8
:080052000A360232FF0E120013
:0E005A00026A016A006A086A036A000E120058
:080068000AAE029E000E120018
:100070007DBE02D0839E01D0838E7DBC02D0839C46
:1000800001D0838C7DBA02D0839A01D0838A7DB857
:1000900002D0839801D0838844B002D0848401D0F8
:1000A00084948482CBDF84927DB602D0839E01D07B
:1000B000838E7DB402D0839C01D0838C7DB202D02C
:1000C000839A01D0838A7DB002D0839801D083883F
:1000D00044B002D0848401D084948482AFDF8492BF
:0C00E00044A002D09BDF01D0A4DF12007E
:1000EC000B840BAE81EF00F0010E036E026A016A05
:0A00FC00006A0A360232FF0E1200FD
:100106000CB0C5EF00F00CA26BEF01F00E6A000E0A
:100116000264DCEF00F0F00E0214D8A4A7EF00F0A2
:10012600023A01380F0B02260138F00B016E003837
:100136000F0B01260038F00B006E08380F0B002657
:100146000838F00B086E0E84D89002BEC0EF00F09F
:1001560008360036013602360E2A02BEC0EF00F01F
:1001660008360036013602360E2A02BEC0EF00F00F
:1001760008360036013602360E2A0E50036461EF49
:1001860001F0035E0BBC08AE66EF01F0D880800E6E
:1001960008640030000E002201220222D8A066EF79
:1001A60001F0023201320032034A6BEF01F066EFD2
:1001B60001F001C002F000C001F008C000F0086ABA
:1001C600000E0E86026413EF01F0F00E0214D8A49E
:1001D600FBEF00F0023A01380F0B02260138F00B54
:1001E600016E00380F0B01260038F00B006E0E84EE
:1001F600D89002BEC0EF00F00036013602360E2A55
:1002060002BEC0EF00F00036013602360E2A02BEEC
:10021600C0EF00F00036013602360E2AC0EF00F0BD
:1002260001C002F000C001F0006A000E0E960E88B2
:10023600026440EF01F0F00E0214D8A42BEF01F097
:10024600023A01380F0B02260138F00B016E0E84BC
:10025600D89002BEC0EF00F0013602360E2A02BE6A
:10026600C0EF00F0013602360E2A02BEC0EF00F0E3
:10027600013602360E2AC0EF00F001C002F0016A14
:10028600000E0E86026470EF01F0F00E0214D8A480
:100296004FEF01F0023A0E84D89002BEC0EF00F094
:1002A60002360E2A02BEC0EF00F002360E2A02BE49
:1002B600C0EF00F002360E2AC0EF00F0010E0C6E01
:1002C60012DF73EF01F0020E0C6ECBDE73EF01F05E
:1002D600040E0C6EB3DE73EF01F0080E0C6EBADE80
:0202E600120004
:1002E800086A096A000E07620364F9EF01F0025018
:1002F80006180A6E075003267E0ED8A08AEF01F072
:10030800035ED8B0FDEF01F08EEF01F0035ED8A0D8
:1003180001EF02F0028E068E02C00EF001C00BF053
:1003280000C00DF000500402F4CF0CF0015005029B
:10033800F4CF00F0F3CF08F00402F3500C26F45089
:100348000822000E00220D500502F3500C26F4502E
:100358000822000E002202500402F3500826F4502E
:10036800002202500502016A000E0122F350002605
:10037800F45001220D500602F3500826F4500022D2
:10038800026A000E012202220B500602F3500026D8
:10039800F4500122000E02220E500602F3500126EC
:1003A800F450022202BEE1EF01F0083600360136B1
:1003B80002360306D8B401EF02F0F4EF01F0D8805A
:1003C800800E08640030000E002201220222D8A00C
:1003D800F4EF01F0023201320032034AFDEF01F07E
:1003E8000AAE029E000E03EF02F0010E32DE03EFAA
:1003F80002F0020E22DE03EF02F0040E73DE12009A
:100408000D6A086A0050D8B4000C04180A6E0ABEB7
:100418000D1E0B6A04AE02D0041E042A00AE02D0E0
:10042800001E002A005004100A6E0ABE1FD0045095
:10043800085E003600340836045008260036060EDA
:100448000C6E00340836045000B0085E00A0082680
:1004580000360C2EF6D700A008260BB015D00DAE2E
:10046800000C001E002A081E082A000C04AE09D041
:1004780000BE04D00050086E006AF1D7006A002A56
:10048800000C001E0B2AD3D7082A0450085CD8A4F5
:0E049800E6D7086A002A00AEE2D7FF0C120079
:1004A60079C004F07AC005F004C002F005C003F07C
:1004B600044A052A7BC000F07CC001F07B4A7C2AF6
:1004C60000C0E9FF01C0EAFF02C0E1FF03C0E2FF8E
:1004D600EECFE6FF02C0E9FF03C0EAFFEE5201E0FD
:0C04E600E3D779C000F07AC001F01200EA
:0C04F2000E0E0D6E0D2EFED70000120045
:1004FE000C6A0E6A0250D8A498EF02F001C002F006
:10050E0000C001F0006A0E860250D8A498EF02F0E7
:10051E0001C002F0016A0E960E880250D8B4AAEFFE
:10052E0002F00E50035ED8A4D8A0AFEF02F0D89020
:10053E0002BEB4EF02F0003601360236032E9FEFF4
:10054E0002F0AFEF02F0010E0C6E80DDB7EF02F09D
:10055E00020E0C6EC4DDB7EF02F0040E0C6E7DDDE4
:02056E00120079
:100570000A6A0350D8A40A800750D8A40A820A50F5
:10058000D8B41BEF03F0030AD8B4D4EF02F00AB0DA
:10059000CFEF02F006AE19EF03F017EF03F002AE53
:1005A00017EF03F019EF03F00250800B0A6E029E62
:1005B0000650800B069E0A18D8B4E5EF02F00A50E8
:1005C000D8B417EF03F019EF03F00750035CD8B469
:1005D000EFEF02F0D8A00BEF03F011EF03F006509D
:1005E000025CD8B4F9EF02F0D8A00BEF03F011EFE2
:1005F00003F00550015CD8B403EF03F0D8A00BEF73
:1006000003F011EF03F00450005CD8B41BEF03F0CB
:10061000D8B011EF03F00A52D8B419EF03F017EF76
:1006200003F00A52D8B417EF03F019EF03F0D880A3
:0E0630001200D8901200D880D8841200120058
:0C063E00449079C07DF015DD448012006E
:10064A006BC004F06CC005F004C0E9FF05C0EAFF06
:10065A00EE5203E0044A052AF7D704C002F005C0A7
:10066A0003F0044A052A6DC000F06EC001F06D4A1D
:10067A006E2A00C0E9FF01C0EAFF02C0E1FF03C021
:10068A00E2FFEECFE6FF02C0E9FF03C0EAFFEE5247
:0E069A0001E0E3D76BC000F06CC001F012006D
:1006A8000FD0800E6B6E19D0C00E6B6E16D0940EE4
:1006B8006B6E13D0D40E6B6E10D0800E6B6E0DD097
:1006C8006B50010AEEE06B50020AEEE06B50030A31
:1006D800EEE06B50040AEEE0F0D76C04006E6B504D
:1006E800002600C06BF000C07DF0BEDC44906F6A4D
:1006F8006F506D24E96E000E6E20EA6EEE520BE02C
:100708006F506D24E96E000E6E20EA6EEECF79F020
:0A07180092DF6F2AEDD74480120033
:100722000900F5CFE6FF0006FBE10106F9E1120040
:10073200969296949598959A959C959E8492849477
:10074200839E839C839A839868DC67DC66DC838A59
:100752008388848272DC849260DC84826EDC849280
:100762005CDC84826ADC849258DC8398848265DC57
:10077200849253DC848261DC8492839A838E8482A5
:100782005CDC84924ADC839E8388848256DC849279
:100792008398848252DC849240DC84824EDC849290
:1007A200838884824ADC849238DC8398848245DCA4
:1007B2008492838E838C838A838884823EDC8492B3
:0607C2002CDC4480120053
:1007C800776A786A6BC073F06CC074F06DC075F0AE
:1007D8006EC076F07650FF0A08E17550FF0A05E111
:1007E8007450FF0A02E17350FF0A0CE16FC079F000
:1007F80070C07AF0330E7B6E000E7C6E50DE030EF6
:10080800006EE9D1010E716E75AE0ED0800E7518AE
:10081800006E00C075F0712A6FC0E1FF70C0E2FF82
:100828002D0EE66E6F4A702A000E006E761808E1EB
:100838000050751805E10050741802E17350000A61
:100848000BE16FC079F070C07AF0370E7B6E000E46
:100858007C6E25DE006ABFD17650FF0A08E175502C
:10086800000A05E17450000A02E17350000A0CE125
:100878006FC079F070C07AF0220E7B6E000E7C6E2D
:100888000EDE71C000F0A7D1000E046E000E056EDA
:10089800000E066E7F0E076E73C000F074C001F084
:1008A80075C002F076C003F05FDE010ED8B0000E0E
:1008B800006E00521BE073C000F074C001F075C0F8
:1008C80002F076C003F0000E046E000E056E200ED6
:1008D800066E820E076E04DD00C073F001C074F06E
:1008E80002C075F003C076F07806CED7000E046E0D
:1008F800000E056E200E066E820E076E73C000F0A5
:1009080074C001F075C002F076C003F02DDE000E51
:10091800D8B0010E006E00521BE073C000F074C026
:1009280001F075C002F076C003F0CD0E046ECC0E57
:10093800056E4C0E066E7B0E076ED2DC00C073F09F
:1009480001C074F002C075F003C076F0782ACED7E3
:10095800FF0E7314086EFF0E7414096E7F0E751463
:100968000A6E000E76140B6E08C004F009C005F07C
:100978000AC006F00BC007F00436049005360636A8
:100988000736000E7314006E000E7414016E000E0C
:100998007514026EFF0E7614036E00C073F001C06A
:1009A80074F002C075F003C076F004507310006E46
:1009B80005507410016E06507510026E07507610BF
:1009C800036E00C073F001C074F002C075F003C07C
:1009D80076F07F0E765C006E00C072F0010E766EC7
:1009E80000C004F073C000F074C001F075C002F0DC
:1009F80076C003F0045007E0003600900136023656
:100A08000336FF0FF8D700C073F001C074F002C0BE
:100A180075F003C076F06FC0E1FF70C0E2FF76505A
:100A2800300FE66E6F4A702A800E7818006E800EBE
:100A3800010A005C08E3800E060A006E800E781832
:100A4800005C01E30AD06FC0E1FF70C0E2FF2E0E28
:100A5800E66E6F4A702A010E776E060E726E72503D
:100A6800000A54E0766A73C000F074C001F075C0E3
:100A780002F076C003F000360090013602360336E5
:100A88000036009001360236033673500026745043
:100A98000122755002227650032200C073F001C073
:100AA80074F002C075F003C076F073C000F074C033
:100AB80001F075C002F076C003F0003600900136F0
:100AC8000236033600C073F001C074F002C075F03E
:100AD80003C076F06FC0E1FF70C0E2FF7650300FC0
:100AE800E66E6F4A702A7750000A0EE17806785051
:100AF800000A0AE16FC0E1FF70C0E2FF2E0EE66E49
:100B08006F4A702A010E776E7206A9D7FF0E6F24FE
:100B1800E96EFF0E7020EA6EEE50300A05E1010E14
:100B28006F5E000E705AF2D7FF0E6F24E96EFF0E4B
:100B38007020EA6EEE502E0A04E1010E6F5E000E80
:100B4800705A7850000A41E06FC0E1FF70C0E2FFC0
:100B5800650EE66E6F4A702A800E7818006E800E59
:100B6800000A005C0BE26FC0E1FF70C0E2FF2D0ECF
:100B7800E66E6F4A702A78500008786E78C072F076
:100B8800800E090A006E800E7818005C0EE20A0ECC
:100B9800046E72C000F034DC6FC0E1FF70C0E2FF89
:100BA8000050300FE66E6F4A702A0A0E046E72C04B
:100BB80000F026DC08C000F06FC0E1FF70C0E2FF63
:100BC8000050300FE66E6F4A702A6FC0E1FF70C0A8
:080BD800E2FFE66A006A120068
:100BE000C70EC2166BC000F00036009000360090B1
:100BF000003600900050C2127CDCC284C2A401D036
:100C0000FDD7C4CF01F0006AC3500012000E0112DC
:020C10001200D0
:100C1200025006180E6E086A096A0B6A03500764CE
:100C2200FCEF06F006500A6E068E028E03500B6E23
:100C32000750036E000E0B644CEF06F00B50075E7C
:100C4200D8B4EDEF06F0070E0764BBEF06F0075EBF
:100C520000C008F001C000F002C001F0026A074EB5
:100C6200EDEF06F0076490EF06F0075E00C008F0B3
:100C720001C000F0016A074EEDEF06F007646EEF67
:100C820006F0075E00C008F0006A074EEDEF06F0BE
:100C9200076455EF06F00AC002F005C001F004C077
:100CA20000F0086A19EF08F0030E076460EF06F01F
:100CB200075E08380F0B086E074EEDEF06F0D8906E
:100CC2000832074EEDEF06F0D8900832074EEDEFEE
:100CD20006F0D8900832EDEF06F0030E07647FEFBE
:100CE20006F0075E08380F0B086E0038F00B082676
:100CF20000380F0B006E074EEDEF06F0D890003271
:100D02000832074EEDEF06F0D89000320832074E57
:100D1200EDEF06F0D89000320832EDEF06F0030E48
:100D22000764A7EF06F0075E08380F0B086E00385D
:100D3200F00B082600380F0B006E0138F00B00266E
:100D420001380F0B016E074EEDEF06F0D89001321D
:100D520000320832074EEDEF06F0D8900132003231
:100D62000832074EEDEF06F0D89001320032083219
:100D7200EDEF06F0030E0764D8EF06F0075E0838C1
:100D82000F0B086E0038F00B082600380F0B006EB0
:100D92000138F00B002601380F0B016E0238F00B00
:100DA200012602380F0B026E074EEDEF06F0D890C7
:100DB2000232013200320832074EEDEF06F0D890CF
:100DC2000232013200320832074EEDEF06F0D890BF
:100DD2000232013200320832096A000E0EAEE1EF31
:100DE20007F0081E001E011E021E082A0022012210
:100DF2000222E1EF07F00750D8A402EF07F019EF43
:100E020008F0096A02C00AF0028E068E0750035CDF
:100E1200076ED8B4D4EF07F0070E0764A2EF07F00D
:100E2200075E0450096E0550046E0650056E066A90
:100E3200074ED4EF07F0070E076477EF07F0075E5F
:100E42000450096E0550046E056A074ED4EF07F090
:100E5200070E076455EF07F0075E0450096E046A37
:100E6200074ED4EF07F0070E07643CEF07F00AC005
:100E720002F019EF08F0030E076447EF07F0075E70
:100E820009380F0B096E074ED4EF07F0D8900932DC
:100E9200074ED4EF07F0D8900932074ED4EF07F08F
:100EA200D8900932D4EF07F0030E076466EF07F01B
:100EB200075E09380F0B096E0438F00B0926043857
:100EC2000F0B046E074ED4EF07F0D89004320932AC
:100ED200074ED4EF07F0D89004320932074ED4EF10
:100EE20007F0D89004320932D4EF07F0030E0764FA
:100EF2008EEF07F0075E09380F0B096E0438F00B0E
:100F0200092604380F0B046E0538F00B0426053849
:100F12000F0B056E074ED4EF07F0D890053204325E
:100F22000932074ED4EF07F0D89005320432093265
:100F3200074ED4EF07F0D890053204320932D4EFCD
:100F420007F0030E0764BFEF07F0075E09380F0BC7
:100F5200096E0438F00B092604380F0B046E0538AD
:100F6200F00B042605380F0B056E0638F00B05262C
:100F720006380F0B066E074ED4EF07F0D8900632F4
:100F8200053204320932074ED4EF07F0D890063208
:100F9200053204320932074ED4EF07F0D8900632F8
:100FA200053204320932086A000E0EAEE1EF07F094
:100FB200091E041E051E061E092A042205220622F7
:100FC2000950082604500022055001220650022230
:100FD2000EBEF8EF07F0D8A007EF08F00232013298
:100FE20000320832033E07EF08F013EF08F0D8B0E2
:100FF2000DEF08F0000E081E001E011E021E082A38
:101002000022012202220A7E0DEF08F0010E0C6E70
:1010120083EC00F01BEF08F0020E0C6E83EC00F084
:101022001BEF08F0040E0C6E21EC00F01BEF08F031
:06103200000E0C6E12001E
:101038000050086E0150006E016A026A036A0B6A6A
:101048000C6A960E036E0A6A00C001F008C000F030
:0A105800086A026A7FEC02F0120041
:101062009BEC09F0696A6A6AC26A060EC16E956AE9
:10107200040E926E966AFF0E936E8E0EC16EC10EB4
:10108200C26E99EC03F0020E0B6E040E0C6EBA0ED9
:101092000D6E0D2EFED70C2EFCD70B2EFAD70000AC
:1010A200010E7D6E38EC00F0020E0B6E040E0C6E1B
:1010B200BA0E0D6E0D2EFED70C2EFCD70B2EFAD7C4
:1010C20000000C0E7D6E38EC00F0020E0B6E040E6A
:1010D2000C6EBA0E0D6E0D2EFED70C2EFCD70B2EFB
:1010E200FAD70000010E6B6E030E6C6E260E6D6E4B
:1010F200000E6E6E54EC03F00B0E0B6E260E0C6E91
:101102005D0E0D6E0D2EFED70C2EFCD70B2EFAD7D0
:1011120000000000010E7D6E38EC00F0020E0B6E36
:10112200040E0C6EBA0E0D6E0D2EFED70C2EFCD7D1
:101132000B2EFAD70000010E6B6E030E6C6E150EAD
:101142006D6E000E6E6E54EC03F0450E796E000E5D
:101152007A6E390E7B6E000E7C6E53EC02F0590EE5
:10116200796E000E7A6E430E7B6E000E7C6E53EC2F
:1011720002F081B00DD0694A6A2A800E006E800E9C
:101182006A18005C02E16950030802E2696A6A6A4D
:10119200020E6B6E24DD4FDF000E046E000E056E34
:1011A2007A0E066E7D0E076E74EC01F000C055F0EB
:1011B20001C056F002C057F003C058F0000E6A1882
:1011C20002E1000E69180BE1590E796E000E7A6E7B
:1011D2003A0E7B6E000E7C6E53EC02F05DD0000E78
:1011E2006A1802E1010E69182EE1590E796E000E9D
:1011F2007A6E3D0E7B6E000E7C6E53EC02F055C093
:1012020000F056C001F057C002F058C003F0660E5D
:10121200046E660E056E660E066E7F0E076E74EC29
:1012220001F0000E046E000E056E000E066E840EB6
:10123200076EEEDC00C055F001C056F002C057F058
:1012420003C058F029D0000E6A1802E1020E691894
:1012520023E1590E796E000E7A6E400E7B6E000EFF
:101262007C6E53EC02F055C000F056C001F057C03E
:1012720002F058C003F0000E046E800E056E080ED8
:10128200066E870E076EC4DC00C055F001C056F032
:1012920002C057F003C058F055C06BF056C06CF056
:1012A20057C06DF058C06EF0450E6F6E000E706E36
:1012B200E4EC03F0450E6B6E000E6C6E590E6D6E13
:1012C200000E6E6E25EC03F0020E6B6E040E6C6E59
:1012D200450E6D6E000E6E6E54EC03F00B0E0B6E2F
:1012E200260E0C6E5D0E0D6E0D2EFED70C2EFCD74B
:1012F2000B2EFAD700000000010E7D6E38EC00F0D4
:041302001AD7FFD720
:1013360010EE15F02F0E006E010E016E060EF66E03
:0E134600130EF76E000EF86E91EC03F012001D
:0D13060054656D70657261747572613A0016
:04131300494E4600F9
:0D1317004C43442050726F6E746F21210012
:041324004E614E00C8
:02132800300093
:01132A0000C2
:03132B002043005C
:03132E0020460056
:03133100204B004E
:0113340000B8
:020000040030CA
:0D000100220D0EFF0080FF0FC00FE00F402A
:00000001FF
