:1000000015EF01F00000000000EF00F0000000001C
:0A0010000000000000000000F3D71C
:10001C00220E0C6E086A096A0A6A0B6A0C06D8B4BE
:10002C001FD0D8900B320A32093208320332023216
:10003C0001320032D8A0F2D70C06D8B409D0045043
:10004C0008260550092206500A2207500B22EAD72F
:10005C00045008260550092206500A2207500B228C
:02006C00120080
:10006E001EC016F01FC017F0000E186E196E010E8E
:04007E00156E1200E9
:100082000134083609360450085E0550D8A0053CF4
:10009200095E003601360F0E0C6E01340836093641
:1000A200045000A006D0085E0550D8A0053C095EA9
:1000B20005D008260550D8B0053C09260036013681
:1000C2000C2EEBD700B006D0045008260550D8B04D
:0800D200053C092600001200A4
:1000DA000450000A08E10550000A05E1FF0E006E0F
:1000EA007F0E016E57D00D6A096A086A0150001026
:1000FA00D8B4000C015005180A6E0ABE0D1E0B6A10
:10010A0005AE05D0041E051E042AD8B4052A01AE80
:10011A0005D0001E011E002AD8B4012A015005107C
:10012A000A6E0ABE10D0A8DF0BB020D00DAE000CAC
:10013A00001E011E002AD8B4012A081E091E082A18
:10014A00D8B4092A000C05AE0DD001BE07D0015063
:10015A00096E0050086E016A006AE8D7016A006AEF
:10016A00002A000C011E001E0B2ADDD7082AD8B46B
:10017A00092A0450085CD8A4D9D70550095CD8A428
:10018A00D5D7096A086A002AD8B4012A01AECED79F
:06019A000000FF0C120042
:1001A000155205E1010E1E6E000E1F6E60DF16C0B7
:1001B00000F017C001F018C002F019C003F06D0E76
:1001C000046E4E0E056EC60E066E410E076E26DFDD
:1001D000390E0024056E300E0120066E000E02203E
:1001E000076E000E0320086E07C000F008C001F083
:1001F000000E08BEFF0E026E036EFF0E00167F0E8D
:100200000116000E0216031600C016F001C017F00A
:0A02100002C018F003C019F012003C
:10021A000900F5CFE6FF0006FBE10106F9E112004D
:10022A001A6A1B6A1C6A1D6AFD0E946E010E936E91
:10023A00956A836A816A81B039D0ADDF060E046E91
:10024A00000E056E45DF08C000F009C001F0004A43
:10025A00012A00C01AF001C01BF000C001F0010E13
:10026A00006E015004E000360090FF0FFBD700C07B
:10027A0081FF91DF060E046E000E056E29DF08C0AD
:10028A0000F009C001F0004A012A00C01CF001C0B8
:10029A001DF000C001F0010E006E015004E00036AE
:1002AA000090FF0FFBD700C083FFC5D7000E1B18B5
:1002BA0002E1060E1A1809E1000E1D1802E1060EE7
:1002CA001C1803E1010E006E01D0006A00B002D0D2
:0A02DA00829201D08282AFD7FFD7D5
:020000040030CA
:0D000100220D0EFF0080FF0FC00FE00F402A
:00000001FF
